{
  "contractName": "SimpleBank",
  "abi": [
    {
      "constant": true,
      "inputs": [
        {
          "name": "",
          "type": "address"
        }
      ],
      "name": "enrolled",
      "outputs": [
        {
          "name": "",
          "type": "bool"
        }
      ],
      "payable": false,
      "stateMutability": "view",
      "type": "function"
    },
    {
      "constant": true,
      "inputs": [],
      "name": "owner",
      "outputs": [
        {
          "name": "",
          "type": "address"
        }
      ],
      "payable": false,
      "stateMutability": "view",
      "type": "function"
    },
    {
      "inputs": [],
      "payable": false,
      "stateMutability": "nonpayable",
      "type": "constructor"
    },
    {
      "payable": true,
      "stateMutability": "payable",
      "type": "fallback"
    },
    {
      "anonymous": false,
      "inputs": [
        {
          "indexed": false,
          "name": "accountAddress",
          "type": "address"
        }
      ],
      "name": "LogEnrolled",
      "type": "event"
    },
    {
      "anonymous": false,
      "inputs": [
        {
          "indexed": false,
          "name": "accountAddress",
          "type": "address"
        },
        {
          "indexed": false,
          "name": "amount",
          "type": "uint256"
        }
      ],
      "name": "LogDepositMade",
      "type": "event"
    },
    {
      "anonymous": false,
      "inputs": [
        {
          "indexed": false,
          "name": "accountAddress",
          "type": "address"
        },
        {
          "indexed": false,
          "name": "withdrawAmount",
          "type": "uint256"
        },
        {
          "indexed": false,
          "name": "newBalance",
          "type": "uint256"
        }
      ],
      "name": "LogWithdrawal",
      "type": "event"
    },
    {
      "constant": true,
      "inputs": [],
      "name": "getBalance",
      "outputs": [
        {
          "name": "",
          "type": "uint256"
        }
      ],
      "payable": false,
      "stateMutability": "view",
      "type": "function"
    },
    {
      "constant": false,
      "inputs": [],
      "name": "enroll",
      "outputs": [
        {
          "name": "",
          "type": "bool"
        }
      ],
      "payable": false,
      "stateMutability": "nonpayable",
      "type": "function"
    },
    {
      "constant": false,
      "inputs": [],
      "name": "deposit",
      "outputs": [
        {
          "name": "",
          "type": "uint256"
        }
      ],
      "payable": true,
      "stateMutability": "payable",
      "type": "function"
    },
    {
      "constant": false,
      "inputs": [
        {
          "name": "withdrawAmount",
          "type": "uint256"
        }
      ],
      "name": "withdraw",
      "outputs": [
        {
          "name": "",
          "type": "uint256"
        }
      ],
      "payable": true,
      "stateMutability": "payable",
      "type": "function"
    }
  ],
  "bytecode": "0x608060405234801561001057600080fd5b5033600260006101000a81548173ffffffffffffffffffffffffffffffffffffffff021916908373ffffffffffffffffffffffffffffffffffffffff160217905550610784806100616000396000f3fe6080604052600436106100555760003560e01c806310eb0e0e1461005a57806312065fe0146100c35780632e1a7d4d146100ee5780638da5cb5b14610130578063d0e30db014610187578063e65f2a7e146101a5575b600080fd5b34801561006657600080fd5b506100a96004803603602081101561007d57600080fd5b81019080803573ffffffffffffffffffffffffffffffffffffffff1690602001909291905050506101d4565b604051808215151515815260200191505060405180910390f35b3480156100cf57600080fd5b506100d86101f4565b6040518082815260200191505060405180910390f35b61011a6004803603602081101561010457600080fd5b810190808035906020019092919050505061023a565b6040518082815260200191505060405180910390f35b34801561013c57600080fd5b5061014561046e565b604051808273ffffffffffffffffffffffffffffffffffffffff1673ffffffffffffffffffffffffffffffffffffffff16815260200191505060405180910390f35b61018f610494565b6040518082815260200191505060405180910390f35b3480156101b157600080fd5b506101ba6105ee565b604051808215151515815260200191505060405180910390f35b60016020528060005260406000206000915054906101000a900460ff1681565b60008060003373ffffffffffffffffffffffffffffffffffffffff1673ffffffffffffffffffffffffffffffffffffffff16815260200190815260200160002054905090565b600060011515600160003373ffffffffffffffffffffffffffffffffffffffff1673ffffffffffffffffffffffffffffffffffffffff16815260200190815260200160002060009054906101000a900460ff1615151461029957600080fd5b816000803373ffffffffffffffffffffffffffffffffffffffff1673ffffffffffffffffffffffffffffffffffffffff1681526020019081526020016000205410156102e457600080fd5b816000803373ffffffffffffffffffffffffffffffffffffffff1673ffffffffffffffffffffffffffffffffffffffff168152602001908152602001600020600082825403925050819055503373ffffffffffffffffffffffffffffffffffffffff166108fc839081150290604051600060405180830381858888f19350505050158015610376573d6000803e3d6000fd5b507ff9226daf630542048a23086c6af599511aac100ec8f532793cc9697d061bed7e33836000803373ffffffffffffffffffffffffffffffffffffffff1673ffffffffffffffffffffffffffffffffffffffff16815260200190815260200160002054604051808473ffffffffffffffffffffffffffffffffffffffff1673ffffffffffffffffffffffffffffffffffffffff168152602001838152602001828152602001935050505060405180910390a16000803373ffffffffffffffffffffffffffffffffffffffff1673ffffffffffffffffffffffffffffffffffffffff168152602001908152602001600020549050919050565b600260009054906101000a900473ffffffffffffffffffffffffffffffffffffffff1681565b600060011515600160003373ffffffffffffffffffffffffffffffffffffffff1673ffffffffffffffffffffffffffffffffffffffff16815260200190815260200160002060009054906101000a900460ff161515146104f357600080fd5b346000803373ffffffffffffffffffffffffffffffffffffffff1673ffffffffffffffffffffffffffffffffffffffff168152602001908152602001600020600082825401925050819055507fa8126f7572bb1fdeae5b5aa9ec126438b91f658a07873f009d041ae690f3a1933334604051808373ffffffffffffffffffffffffffffffffffffffff1673ffffffffffffffffffffffffffffffffffffffff1681526020018281526020019250505060405180910390a16000803373ffffffffffffffffffffffffffffffffffffffff1673ffffffffffffffffffffffffffffffffffffffff16815260200190815260200160002054905090565b6000801515600160003373ffffffffffffffffffffffffffffffffffffffff1673ffffffffffffffffffffffffffffffffffffffff16815260200190815260200160002060009054906101000a900460ff1615151461064c57600080fd5b60018060003373ffffffffffffffffffffffffffffffffffffffff1673ffffffffffffffffffffffffffffffffffffffff16815260200190815260200160002060006101000a81548160ff0219169083151502179055507f990c442e6adb818b8fa7db3cf1023decd07f7b66e5306928c7ed527d974192bb33604051808273ffffffffffffffffffffffffffffffffffffffff1673ffffffffffffffffffffffffffffffffffffffff16815260200191505060405180910390a1600160003373ffffffffffffffffffffffffffffffffffffffff1673ffffffffffffffffffffffffffffffffffffffff16815260200190815260200160002060009054906101000a900460ff1690509056fea165627a7a72305820ad6ba64429598957458070c295bc708a427fc91090de6cd4a2cb8a539b4167690029",
  "source": "/*\r\n    This exercise has been updated to use Solidity version 0.5\r\n    Breaking changes from 0.4 to 0.5 can be found here: \r\n    https://solidity.readthedocs.io/en/v0.5.0/050-breaking-changes.html\r\n*/\r\n\r\npragma solidity ^0.5.0;\r\n\r\ncontract SimpleBank {\r\n\r\n    //\r\n    // State variables\r\n    //\r\n    \r\n    /* Fill in the keyword. Hint: We want to protect our users balance from other contracts*/\r\n    mapping (address => uint) private balances;\r\n    \r\n    /* Fill in the keyword. We want to create a getter function and allow contracts to be able to see if a user is enrolled.  */\r\n    mapping (address => bool) public enrolled;\r\n\r\n    /* Let's make sure everyone knows who owns the bank. Use the appropriate keyword for this*/\r\n    address public owner;\r\n    \r\n    /* Modifer that check customer has been enrolled */\r\n    modifier IsEnrolled() { \r\n        require(enrolled[msg.sender] == true);\r\n        _;\r\n    }    \r\n    \r\n    //\r\n    // Events - publicize actions to external listeners\r\n    //\r\n    \r\n    /* Add an argument for this event, an accountAddress */\r\n    event LogEnrolled(\r\n        address accountAddress\r\n    );\r\n\r\n    /* Add 2 arguments for this event, an accountAddress and an amount */\r\n    event LogDepositMade(\r\n        address accountAddress,\r\n        uint amount\r\n    );\r\n\r\n    /* Create an event called LogWithdrawal */\r\n    /* Add 3 arguments for this event, an accountAddress, withdrawAmount and a newBalance */\r\n    event LogWithdrawal(\r\n        address accountAddress,\r\n        uint withdrawAmount,\r\n        uint newBalance\r\n    );\r\n\r\n    //\r\n    // Functions\r\n    //\r\n\r\n    /* Use the appropriate global variable to get the sender of the transaction */\r\n    constructor() public {\r\n        /* Set the owner to the creator of this contract */\r\n        owner = msg.sender;\r\n    }\r\n\r\n    // Fallback function - Called if other functions don't match call or\r\n    // sent ether without data\r\n    // Typically, called when invalid data is sent\r\n    // Added so ether sent to this contract is reverted if the contract fails\r\n    // otherwise, the sender's money is transferred to contract\r\n    function() external payable {\r\n        revert();\r\n    }\r\n\r\n    /// @notice Get balance\r\n    /// @return The balance of the user\r\n    // A SPECIAL KEYWORD prevents function from editing state variables;\r\n    // allows function to run locally/off blockchain\r\n    function getBalance() public view returns (uint) {\r\n        /* Get the balance of the sender of this transaction */\r\n        return balances[msg.sender];\r\n    }\r\n\r\n    /// @notice Enroll a customer with the bank\r\n    /// @return The users enrolled status\r\n    // Emit the appropriate event\r\n    function enroll() public returns (bool){\r\n        require(enrolled[msg.sender] == false);   //require enrolled status of false (new customer)\r\n        enrolled[msg.sender] = true;              //enrolled current customer\r\n        emit LogEnrolled(msg.sender);           //emit customer address\r\n        return enrolled[msg.sender];            //return enrolled status\r\n    }\r\n\r\n    /// @notice Deposit ether into bank\r\n    /// @return The balance of the user after the deposit is made\r\n    // Add the appropriate keyword so that this function can receive ether\r\n    // Use the appropriate global variables to get the transaction sender and value\r\n    // Emit the appropriate event    \r\n    // Users should be enrolled before they can make deposits\r\n    function deposit() public payable IsEnrolled returns (uint) {\r\n        /* Add the amount to the user's balance, call the event associated with a deposit,\r\n          then return the balance of the user */\r\n          // require(enrolled[msg.sender] == true);     //require customer to be enrolled as bank customer\r\n          balances[msg.sender] += msg.value;         //deposit into customer's account\r\n          emit LogDepositMade(msg.sender, msg.value); //emit DepositMade\r\n          return balances[msg.sender];              //return current custoemr balance\r\n    }\r\n\r\n    /// @notice Withdraw ether from bank\r\n    /// @dev This does not return any excess ether sent to it\r\n    /// @param withdrawAmount amount you want to withdraw\r\n    /// @return The balance remaining for the user\r\n    // Emit the appropriate event    \r\n    function withdraw(uint withdrawAmount) public payable IsEnrolled returns (uint) {\r\n        /* If the sender's balance is at least the amount they want to withdraw,\r\n           Subtract the amount from the sender's balance, and try to send that amount of ether\r\n           to the user attempting to withdraw. \r\n           return the user's balance.*/\r\n           //  require(enrolled[msg.sender] == true);       //require customer to be enrolled as bank customer\r\n           require(balances[msg.sender] >= withdrawAmount);      //the customer balance must be at least the withdrawAmount - use assert b/c all gases are consumed.\r\n           balances[msg.sender] -= withdrawAmount;      //reduce customer balance by withdrawAmount\r\n           address(msg.sender).transfer(withdrawAmount);    //transfer withdrawAmount\r\n           emit LogWithdrawal(msg.sender, withdrawAmount, balances[msg.sender]);        //emit withdraw details\r\n           return balances[msg.sender];     //show current customer balance after withdrawAmount deduction.\r\n    }\r\n}\r\n\r\n",
  "sourcePath": "C:/Users/tuanp/ConsensysDev/simple-bank-exercise-Tuanp703/contracts/SimpleBank.sol",
  "compiler": {
    "name": "solc",
    "version": "0.5.8+commit.23d335f2.Emscripten.clang"
  },
  "schemaVersion": "3.0.17",
  "updatedAt": "2019-11-08T01:14:48.239Z",
  "devdoc": {
    "methods": {
      "deposit()": {
        "return": "The balance of the user after the deposit is made"
      },
      "enroll()": {
        "return": "The users enrolled status"
      },
      "getBalance()": {
        "return": "The balance of the user"
      },
      "withdraw(uint256)": {
        "return": "The balance remaining for the user"
      }
    }
  },
  "userdoc": {
    "methods": {}
  }
}